{
  "contractName": "DevToken",
  "abi": [
    {
      "inputs": [
        {
          "internalType": "string",
          "name": "token_name",
          "type": "string"
        },
        {
          "internalType": "string",
          "name": "short_symbol",
          "type": "string"
        },
        {
          "internalType": "uint8",
          "name": "token_decimals",
          "type": "uint8"
        },
        {
          "internalType": "uint256",
          "name": "token_totalSupply",
          "type": "uint256"
        }
      ],
      "stateMutability": "nonpayable",
      "type": "constructor"
    },
    {
      "anonymous": false,
      "inputs": [
        {
          "indexed": true,
          "internalType": "address",
          "name": "owner",
          "type": "address"
        },
        {
          "indexed": true,
          "internalType": "address",
          "name": "spender",
          "type": "address"
        },
        {
          "indexed": false,
          "internalType": "uint256",
          "name": "value",
          "type": "uint256"
        }
      ],
      "name": "Approval",
      "type": "event"
    },
    {
      "anonymous": false,
      "inputs": [
        {
          "indexed": true,
          "internalType": "address",
          "name": "previousOwner",
          "type": "address"
        },
        {
          "indexed": true,
          "internalType": "address",
          "name": "newOwner",
          "type": "address"
        }
      ],
      "name": "OwnershipTransferred",
      "type": "event"
    },
    {
      "anonymous": false,
      "inputs": [
        {
          "indexed": true,
          "internalType": "address",
          "name": "user",
          "type": "address"
        },
        {
          "indexed": false,
          "internalType": "uint256",
          "name": "amount",
          "type": "uint256"
        },
        {
          "indexed": false,
          "internalType": "uint256",
          "name": "index",
          "type": "uint256"
        },
        {
          "indexed": false,
          "internalType": "uint256",
          "name": "timestamp",
          "type": "uint256"
        }
      ],
      "name": "Staked",
      "type": "event"
    },
    {
      "anonymous": false,
      "inputs": [
        {
          "indexed": true,
          "internalType": "address",
          "name": "from",
          "type": "address"
        },
        {
          "indexed": true,
          "internalType": "address",
          "name": "to",
          "type": "address"
        },
        {
          "indexed": false,
          "internalType": "uint256",
          "name": "value",
          "type": "uint256"
        }
      ],
      "name": "Transfer",
      "type": "event"
    },
    {
      "inputs": [],
      "name": "owner",
      "outputs": [
        {
          "internalType": "address",
          "name": "",
          "type": "address"
        }
      ],
      "stateMutability": "view",
      "type": "function",
      "constant": true
    },
    {
      "inputs": [],
      "name": "renounceOwnership",
      "outputs": [],
      "stateMutability": "nonpayable",
      "type": "function"
    },
    {
      "inputs": [
        {
          "internalType": "address",
          "name": "newOwner",
          "type": "address"
        }
      ],
      "name": "transferOwnership",
      "outputs": [],
      "stateMutability": "nonpayable",
      "type": "function"
    },
    {
      "inputs": [],
      "name": "getOwner",
      "outputs": [
        {
          "internalType": "address",
          "name": "",
          "type": "address"
        }
      ],
      "stateMutability": "view",
      "type": "function",
      "constant": true
    },
    {
      "inputs": [
        {
          "internalType": "address",
          "name": "owner",
          "type": "address"
        },
        {
          "internalType": "address",
          "name": "spender",
          "type": "address"
        }
      ],
      "name": "allowance",
      "outputs": [
        {
          "internalType": "uint256",
          "name": "",
          "type": "uint256"
        }
      ],
      "stateMutability": "view",
      "type": "function",
      "constant": true
    },
    {
      "inputs": [
        {
          "internalType": "address",
          "name": "spender",
          "type": "address"
        },
        {
          "internalType": "uint256",
          "name": "amount",
          "type": "uint256"
        }
      ],
      "name": "approve",
      "outputs": [
        {
          "internalType": "bool",
          "name": "",
          "type": "bool"
        }
      ],
      "stateMutability": "nonpayable",
      "type": "function"
    },
    {
      "inputs": [
        {
          "internalType": "address",
          "name": "spender",
          "type": "address"
        },
        {
          "internalType": "address",
          "name": "recipient",
          "type": "address"
        },
        {
          "internalType": "uint256",
          "name": "amount",
          "type": "uint256"
        }
      ],
      "name": "transferFrom",
      "outputs": [
        {
          "internalType": "bool",
          "name": "",
          "type": "bool"
        }
      ],
      "stateMutability": "nonpayable",
      "type": "function"
    },
    {
      "inputs": [
        {
          "internalType": "address",
          "name": "spender",
          "type": "address"
        },
        {
          "internalType": "uint256",
          "name": "amount",
          "type": "uint256"
        }
      ],
      "name": "increaseAllowance",
      "outputs": [
        {
          "internalType": "bool",
          "name": "",
          "type": "bool"
        }
      ],
      "stateMutability": "nonpayable",
      "type": "function"
    },
    {
      "inputs": [
        {
          "internalType": "address",
          "name": "spender",
          "type": "address"
        },
        {
          "internalType": "uint256",
          "name": "amount",
          "type": "uint256"
        }
      ],
      "name": "decreaseAllowance",
      "outputs": [
        {
          "internalType": "bool",
          "name": "",
          "type": "bool"
        }
      ],
      "stateMutability": "nonpayable",
      "type": "function"
    },
    {
      "inputs": [],
      "name": "decimals",
      "outputs": [
        {
          "internalType": "uint8",
          "name": "",
          "type": "uint8"
        }
      ],
      "stateMutability": "view",
      "type": "function",
      "constant": true
    },
    {
      "inputs": [],
      "name": "symbol",
      "outputs": [
        {
          "internalType": "string",
          "name": "",
          "type": "string"
        }
      ],
      "stateMutability": "view",
      "type": "function",
      "constant": true
    },
    {
      "inputs": [],
      "name": "name",
      "outputs": [
        {
          "internalType": "string",
          "name": "",
          "type": "string"
        }
      ],
      "stateMutability": "view",
      "type": "function",
      "constant": true
    },
    {
      "inputs": [],
      "name": "totalSupply",
      "outputs": [
        {
          "internalType": "uint256",
          "name": "",
          "type": "uint256"
        }
      ],
      "stateMutability": "view",
      "type": "function",
      "constant": true
    },
    {
      "inputs": [
        {
          "internalType": "address",
          "name": "account",
          "type": "address"
        }
      ],
      "name": "balanceOf",
      "outputs": [
        {
          "internalType": "uint256",
          "name": "",
          "type": "uint256"
        }
      ],
      "stateMutability": "view",
      "type": "function",
      "constant": true
    },
    {
      "inputs": [
        {
          "internalType": "address",
          "name": "recipient",
          "type": "address"
        },
        {
          "internalType": "uint256",
          "name": "amount",
          "type": "uint256"
        }
      ],
      "name": "transfer",
      "outputs": [
        {
          "internalType": "bool",
          "name": "",
          "type": "bool"
        }
      ],
      "stateMutability": "nonpayable",
      "type": "function"
    },
    {
      "inputs": [
        {
          "internalType": "address",
          "name": "account",
          "type": "address"
        },
        {
          "internalType": "uint256",
          "name": "amount",
          "type": "uint256"
        }
      ],
      "name": "burn",
      "outputs": [
        {
          "internalType": "bool",
          "name": "",
          "type": "bool"
        }
      ],
      "stateMutability": "nonpayable",
      "type": "function"
    },
    {
      "inputs": [
        {
          "internalType": "address",
          "name": "account",
          "type": "address"
        },
        {
          "internalType": "uint256",
          "name": "amount",
          "type": "uint256"
        }
      ],
      "name": "mint",
      "outputs": [
        {
          "internalType": "bool",
          "name": "",
          "type": "bool"
        }
      ],
      "stateMutability": "nonpayable",
      "type": "function"
    },
    {
      "inputs": [
        {
          "internalType": "uint256",
          "name": "_amount",
          "type": "uint256"
        }
      ],
      "name": "stake",
      "outputs": [],
      "stateMutability": "nonpayable",
      "type": "function"
    },
    {
      "inputs": [
        {
          "internalType": "uint256",
          "name": "amount",
          "type": "uint256"
        },
        {
          "internalType": "uint256",
          "name": "stake_index",
          "type": "uint256"
        }
      ],
      "name": "withdrawStake",
      "outputs": [],
      "stateMutability": "nonpayable",
      "type": "function"
    },
    {
      "inputs": [
        {
          "internalType": "address",
          "name": "_staker",
          "type": "address"
        }
      ],
      "name": "hasStake",
      "outputs": [
        {
          "components": [
            {
              "internalType": "uint256",
              "name": "total_amount",
              "type": "uint256"
            },
            {
              "components": [
                {
                  "internalType": "address",
                  "name": "user",
                  "type": "address"
                },
                {
                  "internalType": "uint256",
                  "name": "amount",
                  "type": "uint256"
                },
                {
                  "internalType": "uint256",
                  "name": "since",
                  "type": "uint256"
                },
                {
                  "internalType": "uint256",
                  "name": "claimable",
                  "type": "uint256"
                }
              ],
              "internalType": "struct Stakeable.Stake[]",
              "name": "stakes",
              "type": "tuple[]"
            }
          ],
          "internalType": "struct Stakeable.StakingSummary",
          "name": "",
          "type": "tuple"
        }
      ],
      "stateMutability": "view",
      "type": "function",
      "constant": true
    }
  ],
  "bytecode": "0x60806040526103e86001553480156200001757600080fd5b506040516200343f3803806200343f83398181016040528101906200003d9190620004ea565b336000806101000a81548173ffffffffffffffffffffffffffffffffffffffff021916908373ffffffffffffffffffffffffffffffffffffffff16021790555060008054906101000a900473ffffffffffffffffffffffffffffffffffffffff1673ffffffffffffffffffffffffffffffffffffffff16600073ffffffffffffffffffffffffffffffffffffffff167f8be0079c531659141344cd1fd0a4f28419497f9722a3daafe3b4186f6b6457e060405160405180910390a360026001816001815401808255809150500390600052602060002090505083600790805190602001906200012e92919062000224565b5082600690805190602001906200014792919062000224565b5081600560006101000a81548160ff021916908360ff16021790555080600481905550600454600960003373ffffffffffffffffffffffffffffffffffffffff1673ffffffffffffffffffffffffffffffffffffffff168152602001908152602001600020819055503373ffffffffffffffffffffffffffffffffffffffff16600073ffffffffffffffffffffffffffffffffffffffff167fddf252ad1be2c89b69c2b068fc378daa952ba7f163c4a11628f55a4df523b3ef600454604051620002129190620005ab565b60405180910390a3505050506200062c565b8280546200023290620005f7565b90600052602060002090601f016020900481019282620002565760008555620002a2565b82601f106200027157805160ff1916838001178555620002a2565b82800160010185558215620002a2579182015b82811115620002a157825182559160200191906001019062000284565b5b509050620002b19190620002b5565b5090565b5b80821115620002d0576000816000905550600101620002b6565b5090565b6000604051905090565b600080fd5b600080fd5b600080fd5b600080fd5b6000601f19601f8301169050919050565b7f4e487b7100000000000000000000000000000000000000000000000000000000600052604160045260246000fd5b6200033d82620002f2565b810181811067ffffffffffffffff821117156200035f576200035e62000303565b5b80604052505050565b600062000374620002d4565b905062000382828262000332565b919050565b600067ffffffffffffffff821115620003a557620003a462000303565b5b620003b082620002f2565b9050602081019050919050565b60005b83811015620003dd578082015181840152602081019050620003c0565b83811115620003ed576000848401525b50505050565b60006200040a620004048462000387565b62000368565b905082815260208101848484011115620004295762000428620002ed565b5b62000436848285620003bd565b509392505050565b600082601f830112620004565762000455620002e8565b5b815162000468848260208601620003f3565b91505092915050565b600060ff82169050919050565b620004898162000471565b81146200049557600080fd5b50565b600081519050620004a9816200047e565b92915050565b6000819050919050565b620004c481620004af565b8114620004d057600080fd5b50565b600081519050620004e481620004b9565b92915050565b60008060008060808587031215620005075762000506620002de565b5b600085015167ffffffffffffffff811115620005285762000527620002e3565b5b62000536878288016200043e565b945050602085015167ffffffffffffffff8111156200055a5762000559620002e3565b5b62000568878288016200043e565b93505060406200057b8782880162000498565b92505060606200058e87828801620004d3565b91505092959194509250565b620005a581620004af565b82525050565b6000602082019050620005c260008301846200059a565b92915050565b7f4e487b7100000000000000000000000000000000000000000000000000000000600052602260045260246000fd5b600060028204905060018216806200061057607f821691505b602082108103620006265762000625620005c8565b5b50919050565b612e03806200063c6000396000f3fe608060405234801561001057600080fd5b506004361061012c5760003560e01c80638da5cb5b116100ad578063a9059cbb11610071578063a9059cbb1461035b578063dd62ed3e1461038b578063e73e14bf146103bb578063f1fdf469146103eb578063f2fde38b146104075761012c565b80638da5cb5b146102a357806395d89b41146102c15780639dc29fac146102df578063a457c2d71461030f578063a694fc3a1461033f5761012c565b806339509351116100f457806339509351146101eb57806340c10f191461021b57806370a082311461024b578063715018a61461027b578063893d20e8146102855761012c565b806306fdde0314610131578063095ea7b31461014f57806318160ddd1461017f57806323b872dd1461019d578063313ce567146101cd575b600080fd5b610139610423565b6040516101469190611f0c565b60405180910390f35b61016960048036038101906101649190611fc7565b6104b5565b6040516101769190612022565b60405180910390f35b6101876104cc565b604051610194919061204c565b60405180910390f35b6101b760048036038101906101b29190612067565b6104d6565b6040516101c49190612022565b60405180910390f35b6101d561063f565b6040516101e291906120d6565b60405180910390f35b61020560048036038101906102009190611fc7565b610656565b6040516102129190612022565b60405180910390f35b61023560048036038101906102309190611fc7565b6106f4565b6040516102429190612022565b60405180910390f35b610265600480360381019061026091906120f1565b610798565b604051610272919061204c565b60405180910390f35b6102836107e1565b005b61028d61092d565b60405161029a919061212d565b60405180910390f35b6102ab61093c565b6040516102b8919061212d565b60405180910390f35b6102c9610965565b6040516102d69190611f0c565b60405180910390f35b6102f960048036038101906102f49190611fc7565b6109f7565b6040516103069190612022565b60405180910390f35b61032960048036038101906103249190611fc7565b610a9b565b6040516103369190612022565b60405180910390f35b61035960048036038101906103549190612148565b610b39565b005b61037560048036038101906103709190611fc7565b610bd0565b6040516103829190612022565b60405180910390f35b6103a560048036038101906103a09190612175565b610be7565b6040516103b2919061204c565b60405180910390f35b6103d560048036038101906103d091906120f1565b610c6e565b6040516103e29190612314565b60405180910390f35b61040560048036038101906104009190612336565b610e7a565b005b610421600480360381019061041c91906120f1565b610e97565b005b606060078054610432906123a5565b80601f016020809104026020016040519081016040528092919081815260200182805461045e906123a5565b80156104ab5780601f10610480576101008083540402835291602001916104ab565b820191906000526020600020905b81548152906001019060200180831161048e57829003601f168201915b5050505050905090565b60006104c2338484610f31565b6001905092915050565b6000600454905090565b600081600860008673ffffffffffffffffffffffffffffffffffffffff1673ffffffffffffffffffffffffffffffffffffffff16815260200190815260200160002060003373ffffffffffffffffffffffffffffffffffffffff1673ffffffffffffffffffffffffffffffffffffffff168152602001908152602001600020541015610597576040517f08c379a000000000000000000000000000000000000000000000000000000000815260040161058e90612448565b60405180910390fd5b6105a28484846110fa565b610634843384600860008973ffffffffffffffffffffffffffffffffffffffff1673ffffffffffffffffffffffffffffffffffffffff16815260200190815260200160002060003373ffffffffffffffffffffffffffffffffffffffff1673ffffffffffffffffffffffffffffffffffffffff1681526020019081526020016000205461062f9190612497565b610f31565b600190509392505050565b6000600560009054906101000a900460ff16905090565b60006106ea338484600860003373ffffffffffffffffffffffffffffffffffffffff1673ffffffffffffffffffffffffffffffffffffffff16815260200190815260200160002060008873ffffffffffffffffffffffffffffffffffffffff1673ffffffffffffffffffffffffffffffffffffffff168152602001908152602001600020546106e591906124cb565b610f31565b6001905092915050565b60003373ffffffffffffffffffffffffffffffffffffffff1660008054906101000a900473ffffffffffffffffffffffffffffffffffffffff1673ffffffffffffffffffffffffffffffffffffffff1614610784576040517f08c379a000000000000000000000000000000000000000000000000000000000815260040161077b90612593565b60405180910390fd5b61078e83836113e0565b6001905092915050565b6000600960008373ffffffffffffffffffffffffffffffffffffffff1673ffffffffffffffffffffffffffffffffffffffff168152602001908152602001600020549050919050565b3373ffffffffffffffffffffffffffffffffffffffff1660008054906101000a900473ffffffffffffffffffffffffffffffffffffffff1673ffffffffffffffffffffffffffffffffffffffff161461086f576040517f08c379a000000000000000000000000000000000000000000000000000000000815260040161086690612593565b60405180910390fd5b600073ffffffffffffffffffffffffffffffffffffffff1660008054906101000a900473ffffffffffffffffffffffffffffffffffffffff1673ffffffffffffffffffffffffffffffffffffffff167f8be0079c531659141344cd1fd0a4f28419497f9722a3daafe3b4186f6b6457e060405160405180910390a360008060006101000a81548173ffffffffffffffffffffffffffffffffffffffff021916908373ffffffffffffffffffffffffffffffffffffffff160217905550565b600061093761093c565b905090565b60008060009054906101000a900473ffffffffffffffffffffffffffffffffffffffff16905090565b606060068054610974906123a5565b80601f01602080910402602001604051908101604052809291908181526020018280546109a0906123a5565b80156109ed5780601f106109c2576101008083540402835291602001916109ed565b820191906000526020600020905b8154815290600101906020018083116109d057829003601f168201915b5050505050905090565b60003373ffffffffffffffffffffffffffffffffffffffff1660008054906101000a900473ffffffffffffffffffffffffffffffffffffffff1673ffffffffffffffffffffffffffffffffffffffff1614610a87576040517f08c379a0000000000000000000000000000000000000000000000000000000008152600401610a7e90612593565b60405180910390fd5b610a91838361155b565b6001905092915050565b6000610b2f338484600860003373ffffffffffffffffffffffffffffffffffffffff1673ffffffffffffffffffffffffffffffffffffffff16815260200190815260200160002060008873ffffffffffffffffffffffffffffffffffffffff1673ffffffffffffffffffffffffffffffffffffffff16815260200190815260200160002054610b2a9190612497565b610f31565b6001905092915050565b600960003373ffffffffffffffffffffffffffffffffffffffff1673ffffffffffffffffffffffffffffffffffffffff168152602001908152602001600020548110610bba576040517f08c379a0000000000000000000000000000000000000000000000000000000008152600401610bb190612625565b60405180910390fd5b610bc381611758565b610bcd338261155b565b50565b6000610bdd3384846110fa565b6001905092915050565b6000600860008473ffffffffffffffffffffffffffffffffffffffff1673ffffffffffffffffffffffffffffffffffffffff16815260200190815260200160002060008373ffffffffffffffffffffffffffffffffffffffff1673ffffffffffffffffffffffffffffffffffffffff16815260200190815260200160002054905092915050565b610c76611e59565b6000806040518060400160405280600081526020016002600360008873ffffffffffffffffffffffffffffffffffffffff1673ffffffffffffffffffffffffffffffffffffffff1681526020019081526020016000205481548110610cde57610cdd612645565b5b9060005260206000209060020201600101805480602002602001604051908101604052809291908181526020016000905b82821015610db557838290600052602060002090600402016040518060800160405290816000820160009054906101000a900473ffffffffffffffffffffffffffffffffffffffff1673ffffffffffffffffffffffffffffffffffffffff1673ffffffffffffffffffffffffffffffffffffffff168152602001600182015481526020016002820154815260200160038201548152505081526020019060010190610d0f565b50505050815250905060005b816020015151811015610e65576000610df783602001518381518110610dea57610de9612645565b5b602002602001015161193c565b90508083602001518381518110610e1157610e10612645565b5b6020026020010151606001818152505082602001518281518110610e3857610e37612645565b5b60200260200101516020015184610e4f91906124cb565b9350508080610e5d90612674565b915050610dc1565b50818160000181815250508092505050919050565b6000610e86838361197e565b9050610e9233826113e0565b505050565b3373ffffffffffffffffffffffffffffffffffffffff1660008054906101000a900473ffffffffffffffffffffffffffffffffffffffff1673ffffffffffffffffffffffffffffffffffffffff1614610f25576040517f08c379a0000000000000000000000000000000000000000000000000000000008152600401610f1c90612593565b60405180910390fd5b610f2e81611c46565b50565b600073ffffffffffffffffffffffffffffffffffffffff168373ffffffffffffffffffffffffffffffffffffffff1603610fa0576040517f08c379a0000000000000000000000000000000000000000000000000000000008152600401610f979061272e565b60405180910390fd5b600073ffffffffffffffffffffffffffffffffffffffff168273ffffffffffffffffffffffffffffffffffffffff160361100f576040517f08c379a0000000000000000000000000000000000000000000000000000000008152600401611006906127c0565b60405180910390fd5b80600860008573ffffffffffffffffffffffffffffffffffffffff1673ffffffffffffffffffffffffffffffffffffffff16815260200190815260200160002060008473ffffffffffffffffffffffffffffffffffffffff1673ffffffffffffffffffffffffffffffffffffffff168152602001908152602001600020819055508173ffffffffffffffffffffffffffffffffffffffff168373ffffffffffffffffffffffffffffffffffffffff167f8c5be1e5ebec7d5bd14f71427d1e84f3dd0314c0f7b2291e5b200ac8c7c3b925836040516110ed919061204c565b60405180910390a3505050565b600073ffffffffffffffffffffffffffffffffffffffff168373ffffffffffffffffffffffffffffffffffffffff1603611169576040517f08c379a000000000000000000000000000000000000000000000000000000000815260040161116090612852565b60405180910390fd5b600073ffffffffffffffffffffffffffffffffffffffff168273ffffffffffffffffffffffffffffffffffffffff16036111d8576040517f08c379a00000000000000000000000000000000000000000000000000000000081526004016111cf906128e4565b60405180910390fd5b80600960008573ffffffffffffffffffffffffffffffffffffffff1673ffffffffffffffffffffffffffffffffffffffff16815260200190815260200160002054101561125a576040517f08c379a000000000000000000000000000000000000000000000000000000000815260040161125190612976565b60405180910390fd5b80600960008573ffffffffffffffffffffffffffffffffffffffff1673ffffffffffffffffffffffffffffffffffffffff168152602001908152602001600020546112a59190612497565b600960008573ffffffffffffffffffffffffffffffffffffffff1673ffffffffffffffffffffffffffffffffffffffff1681526020019081526020016000208190555080600960008473ffffffffffffffffffffffffffffffffffffffff1673ffffffffffffffffffffffffffffffffffffffff1681526020019081526020016000205461133391906124cb565b600960008473ffffffffffffffffffffffffffffffffffffffff1673ffffffffffffffffffffffffffffffffffffffff168152602001908152602001600020819055508173ffffffffffffffffffffffffffffffffffffffff168373ffffffffffffffffffffffffffffffffffffffff167fddf252ad1be2c89b69c2b068fc378daa952ba7f163c4a11628f55a4df523b3ef836040516113d3919061204c565b60405180910390a3505050565b600073ffffffffffffffffffffffffffffffffffffffff168273ffffffffffffffffffffffffffffffffffffffff160361144f576040517f08c379a000000000000000000000000000000000000000000000000000000000815260040161144690612a08565b60405180910390fd5b8060045461145d91906124cb565b60048190555080600960008473ffffffffffffffffffffffffffffffffffffffff1673ffffffffffffffffffffffffffffffffffffffff168152602001908152602001600020546114ae91906124cb565b600960008473ffffffffffffffffffffffffffffffffffffffff1673ffffffffffffffffffffffffffffffffffffffff168152602001908152602001600020819055508173ffffffffffffffffffffffffffffffffffffffff16600073ffffffffffffffffffffffffffffffffffffffff167fddf252ad1be2c89b69c2b068fc378daa952ba7f163c4a11628f55a4df523b3ef8360405161154f919061204c565b60405180910390a35050565b600073ffffffffffffffffffffffffffffffffffffffff168273ffffffffffffffffffffffffffffffffffffffff16036115ca576040517f08c379a00000000000000000000000000000000000000000000000000000000081526004016115c190612a9a565b60405180910390fd5b80600960008473ffffffffffffffffffffffffffffffffffffffff1673ffffffffffffffffffffffffffffffffffffffff16815260200190815260200160002054101561164c576040517f08c379a000000000000000000000000000000000000000000000000000000000815260040161164390612b2c565b60405180910390fd5b80600960008473ffffffffffffffffffffffffffffffffffffffff1673ffffffffffffffffffffffffffffffffffffffff168152602001908152602001600020546116979190612497565b600960008473ffffffffffffffffffffffffffffffffffffffff1673ffffffffffffffffffffffffffffffffffffffff16815260200190815260200160002081905550806004546116e89190612497565b600481905550600073ffffffffffffffffffffffffffffffffffffffff168273ffffffffffffffffffffffffffffffffffffffff167fddf252ad1be2c89b69c2b068fc378daa952ba7f163c4a11628f55a4df523b3ef8360405161174c919061204c565b60405180910390a35050565b6000811161179b576040517f08c379a000000000000000000000000000000000000000000000000000000000815260040161179290612b98565b60405180910390fd5b6000600360003373ffffffffffffffffffffffffffffffffffffffff1673ffffffffffffffffffffffffffffffffffffffff1681526020019081526020016000205490506000429050600082036117f8576117f533611d72565b91505b6002828154811061180c5761180b612645565b5b906000526020600020906002020160010160405180608001604052803373ffffffffffffffffffffffffffffffffffffffff1681526020018581526020018381526020016000815250908060018154018082558091505060019003906000526020600020906004020160009091909190915060008201518160000160006101000a81548173ffffffffffffffffffffffffffffffffffffffff021916908373ffffffffffffffffffffffffffffffffffffffff16021790555060208201518160010155604082015181600201556060820151816003015550503373ffffffffffffffffffffffffffffffffffffffff167fb4caaf29adda3eefee3ad552a8e85058589bf834c7466cae4ee58787f70589ed84848460405161192f93929190612bb8565b60405180910390a2505050565b60006001548260200151610e108460400151426119599190612497565b6119639190612c1e565b61196d9190612c4f565b6119779190612c1e565b9050919050565b600080600360003373ffffffffffffffffffffffffffffffffffffffff1673ffffffffffffffffffffffffffffffffffffffff1681526020019081526020016000205490506000600282815481106119d9576119d8612645565b5b906000526020600020906002020160010184815481106119fc576119fb612645565b5b90600052602060002090600402016040518060800160405290816000820160009054906101000a900473ffffffffffffffffffffffffffffffffffffffff1673ffffffffffffffffffffffffffffffffffffffff1673ffffffffffffffffffffffffffffffffffffffff168152602001600182015481526020016002820154815260200160038201548152505090508481602001511015611ad2576040517f08c379a0000000000000000000000000000000000000000000000000000000008152600401611ac990612d1b565b60405180910390fd5b6000611add8261193c565b9050858260200151611aef9190612497565b8260200181815250506000826020015103611b905760028381548110611b1857611b17612645565b5b90600052602060002090600202016001018581548110611b3b57611b3a612645565b5b9060005260206000209060040201600080820160006101000a81549073ffffffffffffffffffffffffffffffffffffffff02191690556001820160009055600282016000905560038201600090555050611c2f565b816020015160028481548110611ba957611ba8612645565b5b90600052602060002090600202016001018681548110611bcc57611bcb612645565b5b9060005260206000209060040201600101819055504260028481548110611bf657611bf5612645565b5b90600052602060002090600202016001018681548110611c1957611c18612645565b5b9060005260206000209060040201600201819055505b8086611c3b91906124cb565b935050505092915050565b600073ffffffffffffffffffffffffffffffffffffffff168173ffffffffffffffffffffffffffffffffffffffff1603611cb5576040517f08c379a0000000000000000000000000000000000000000000000000000000008152600401611cac90612dad565b60405180910390fd5b8073ffffffffffffffffffffffffffffffffffffffff1660008054906101000a900473ffffffffffffffffffffffffffffffffffffffff1673ffffffffffffffffffffffffffffffffffffffff167f8be0079c531659141344cd1fd0a4f28419497f9722a3daafe3b4186f6b6457e060405160405180910390a3806000806101000a81548173ffffffffffffffffffffffffffffffffffffffff021916908373ffffffffffffffffffffffffffffffffffffffff16021790555050565b600060026001816001815401808255809150500390600052602060002090505060006001600280549050611da69190612497565b90508260028281548110611dbd57611dbc612645565b5b906000526020600020906002020160000160006101000a81548173ffffffffffffffffffffffffffffffffffffffff021916908373ffffffffffffffffffffffffffffffffffffffff16021790555080600360008573ffffffffffffffffffffffffffffffffffffffff1673ffffffffffffffffffffffffffffffffffffffff1681526020019081526020016000208190555080915050919050565b604051806040016040528060008152602001606081525090565b600081519050919050565b600082825260208201905092915050565b60005b83811015611ead578082015181840152602081019050611e92565b83811115611ebc576000848401525b50505050565b6000601f19601f8301169050919050565b6000611ede82611e73565b611ee88185611e7e565b9350611ef8818560208601611e8f565b611f0181611ec2565b840191505092915050565b60006020820190508181036000830152611f268184611ed3565b905092915050565b600080fd5b600073ffffffffffffffffffffffffffffffffffffffff82169050919050565b6000611f5e82611f33565b9050919050565b611f6e81611f53565b8114611f7957600080fd5b50565b600081359050611f8b81611f65565b92915050565b6000819050919050565b611fa481611f91565b8114611faf57600080fd5b50565b600081359050611fc181611f9b565b92915050565b60008060408385031215611fde57611fdd611f2e565b5b6000611fec85828601611f7c565b9250506020611ffd85828601611fb2565b9150509250929050565b60008115159050919050565b61201c81612007565b82525050565b60006020820190506120376000830184612013565b92915050565b61204681611f91565b82525050565b6000602082019050612061600083018461203d565b92915050565b6000806000606084860312156120805761207f611f2e565b5b600061208e86828701611f7c565b935050602061209f86828701611f7c565b92505060406120b086828701611fb2565b9150509250925092565b600060ff82169050919050565b6120d0816120ba565b82525050565b60006020820190506120eb60008301846120c7565b92915050565b60006020828403121561210757612106611f2e565b5b600061211584828501611f7c565b91505092915050565b61212781611f53565b82525050565b6000602082019050612142600083018461211e565b92915050565b60006020828403121561215e5761215d611f2e565b5b600061216c84828501611fb2565b91505092915050565b6000806040838503121561218c5761218b611f2e565b5b600061219a85828601611f7c565b92505060206121ab85828601611f7c565b9150509250929050565b6121be81611f91565b82525050565b600081519050919050565b600082825260208201905092915050565b6000819050602082019050919050565b6121f981611f53565b82525050565b60808201600082015161221560008501826121f0565b50602082015161222860208501826121b5565b50604082015161223b60408501826121b5565b50606082015161224e60608501826121b5565b50505050565b600061226083836121ff565b60808301905092915050565b6000602082019050919050565b6000612284826121c4565b61228e81856121cf565b9350612299836121e0565b8060005b838110156122ca5781516122b18882612254565b97506122bc8361226c565b92505060018101905061229d565b5085935050505092915050565b60006040830160008301516122ef60008601826121b5565b50602083015184820360208601526123078282612279565b9150508091505092915050565b6000602082019050818103600083015261232e81846122d7565b905092915050565b6000806040838503121561234d5761234c611f2e565b5b600061235b85828601611fb2565b925050602061236c85828601611fb2565b9150509250929050565b7f4e487b7100000000000000000000000000000000000000000000000000000000600052602260045260246000fd5b600060028204905060018216806123bd57607f821691505b6020821081036123d0576123cf612376565b5b50919050565b7f446576546f6b656e3a20596f752063616e6e6f74207370656e6420746861742060008201527f6d756368206f6e2074686973206163636f756e74000000000000000000000000602082015250565b6000612432603483611e7e565b915061243d826123d6565b604082019050919050565b6000602082019050818103600083015261246181612425565b9050919050565b7f4e487b7100000000000000000000000000000000000000000000000000000000600052601160045260246000fd5b60006124a282611f91565b91506124ad83611f91565b9250828210156124c0576124bf612468565b5b828203905092915050565b60006124d682611f91565b91506124e183611f91565b9250827fffffffffffffffffffffffffffffffffffffffffffffffffffffffffffffffff0382111561251657612515612468565b5b828201905092915050565b7f4f776e61626c653a206f6e6c79206f776e65722063616e2063616c6c2074686960008201527f732066756e6374696f6e00000000000000000000000000000000000000000000602082015250565b600061257d602a83611e7e565b915061258882612521565b604082019050919050565b600060208201905081810360008301526125ac81612570565b9050919050565b7f446576546f6b656e3a2043616e6e6f74207374616b65206d6f7265207468616e60008201527f20796f75206f776e000000000000000000000000000000000000000000000000602082015250565b600061260f602883611e7e565b915061261a826125b3565b604082019050919050565b6000602082019050818103600083015261263e81612602565b9050919050565b7f4e487b7100000000000000000000000000000000000000000000000000000000600052603260045260246000fd5b600061267f82611f91565b91507fffffffffffffffffffffffffffffffffffffffffffffffffffffffffffffffff82036126b1576126b0612468565b5b600182019050919050565b7f446576546f6b656e3a20617070726f76652063616e6e6f7420626520646f6e6560008201527f2066726f6d207a65726f20616464726573730000000000000000000000000000602082015250565b6000612718603283611e7e565b9150612723826126bc565b604082019050919050565b600060208201905081810360008301526127478161270b565b9050919050565b7f446576546f6b656e3a20617070726f76652063616e6e6f7420626520746f207a60008201527f65726f2061646472657373000000000000000000000000000000000000000000602082015250565b60006127aa602b83611e7e565b91506127b58261274e565b604082019050919050565b600060208201905081810360008301526127d98161279d565b9050919050565b7f446576546f6b656e3a207472616e736665722066726f6d207a65726f2061646460008201527f7265737300000000000000000000000000000000000000000000000000000000602082015250565b600061283c602483611e7e565b9150612847826127e0565b604082019050919050565b6000602082019050818103600083015261286b8161282f565b9050919050565b7f446576546f6b656e3a207472616e7366657220746f207a65726f20616464726560008201527f7373000000000000000000000000000000000000000000000000000000000000602082015250565b60006128ce602283611e7e565b91506128d982612872565b604082019050919050565b600060208201905081810360008301526128fd816128c1565b9050919050565b7f446576546f6b656e3a2063616e74207472616e73666572206d6f72652074686160008201527f6e20796f7572206163636f756e7420686f6c6473000000000000000000000000602082015250565b6000612960603483611e7e565b915061296b82612904565b604082019050919050565b6000602082019050818103600083015261298f81612953565b9050919050565b7f446576546f6b656e3a2063616e6e6f74206d696e7420746f207a65726f20616460008201527f6472657373000000000000000000000000000000000000000000000000000000602082015250565b60006129f2602583611e7e565b91506129fd82612996565b604082019050919050565b60006020820190508181036000830152612a21816129e5565b9050919050565b7f446576546f6b656e3a2063616e6e6f74206275726e2066726f6d207a65726f2060008201527f6164647265737300000000000000000000000000000000000000000000000000602082015250565b6000612a84602783611e7e565b9150612a8f82612a28565b604082019050919050565b60006020820190508181036000830152612ab381612a77565b9050919050565b7f446576546f6b656e3a2043616e6e6f74206275726e206d6f7265207468616e2060008201527f746865206163636f756e74206f776e7300000000000000000000000000000000602082015250565b6000612b16603083611e7e565b9150612b2182612aba565b604082019050919050565b60006020820190508181036000830152612b4581612b09565b9050919050565b7f43616e6e6f74207374616b65206e6f7468696e67000000000000000000000000600082015250565b6000612b82601483611e7e565b9150612b8d82612b4c565b602082019050919050565b60006020820190508181036000830152612bb181612b75565b9050919050565b6000606082019050612bcd600083018661203d565b612bda602083018561203d565b612be7604083018461203d565b949350505050565b7f4e487b7100000000000000000000000000000000000000000000000000000000600052601260045260246000fd5b6000612c2982611f91565b9150612c3483611f91565b925082612c4457612c43612bef565b5b828204905092915050565b6000612c5a82611f91565b9150612c6583611f91565b9250817fffffffffffffffffffffffffffffffffffffffffffffffffffffffffffffffff0483118215151615612c9e57612c9d612468565b5b828202905092915050565b7f5374616b696e673a2043616e6e6f74207769746864726177206d6f726520746860008201527f616e20796f752068617665207374616b65640000000000000000000000000000602082015250565b6000612d05603283611e7e565b9150612d1082612ca9565b604082019050919050565b60006020820190508181036000830152612d3481612cf8565b9050919050565b7f4f776e61626c653a206e6577206f776e657220697320746865207a65726f206160008201527f6464726573730000000000000000000000000000000000000000000000000000602082015250565b6000612d97602683611e7e565b9150612da282612d3b565b604082019050919050565b60006020820190508181036000830152612dc681612d8a565b905091905056fea2646970667358221220db7984c11deb5f0abccb2c6ee60853977bfe7b4773bab24e376c0e27b740c9e164736f6c634300080d0033",
  "immutableReferences": {},
  "source": "// SPDX-License-Identifier: MIT\npragma solidity >=0.4.22 <0.9.0;\nimport './Ownable.sol';\nimport './Stakeable.sol';\n// SafeMath\nlibrary SafeMath {\n  /**\n   * @dev Returns the addition of two unsigned integers, reverting on\n   * overflow.\n   *\n   * Counterpart to Solidity's `+` operator.\n   *\n   * Requirements:\n   * - Addition cannot overflow.\n   */\n  function add(uint256 a, uint256 b) internal pure returns (uint256) {\n    uint256 c = a + b;\n    require(c >= a, \"SafeMath: addition overflow\");\n\n    return c;\n  }\n\n  /**\n   * @dev Returns the subtraction of two unsigned integers, reverting on\n   * overflow (when the result is negative).\n   *\n   * Counterpart to Solidity's `-` operator.\n   *\n   * Requirements:\n   * - Subtraction cannot overflow.\n   */\n  function sub(uint256 a, uint256 b) internal pure returns (uint256) {\n    return sub(a, b, \"SafeMath: subtraction overflow\");\n  }\n\n  /**\n   * @dev Returns the subtraction of two unsigned integers, reverting with custom message on\n   * overflow (when the result is negative).\n   *\n   * Counterpart to Solidity's `-` operator.\n   *\n   * Requirements:\n   * - Subtraction cannot overflow.\n   */\n  function sub(uint256 a, uint256 b, string memory errorMessage) internal pure returns (uint256) {\n    require(b <= a, errorMessage);\n    uint256 c = a - b;\n\n    return c;\n  }\n\n  /**\n   * @dev Returns the multiplication of two unsigned integers, reverting on\n   * overflow.\n   *\n   * Counterpart to Solidity's `*` operator.\n   *\n   * Requirements:\n   * - Multiplication cannot overflow.\n   */\n  function mul(uint256 a, uint256 b) internal pure returns (uint256) {\n    // Gas optimization: this is cheaper than requiring 'a' not being zero, but the\n    // benefit is lost if 'b' is also tested.\n    // See: https://github.com/OpenZeppelin/openzeppelin-contracts/pull/522\n    if (a == 0) {\n      return 0;\n    }\n\n    uint256 c = a * b;\n    require(c / a == b, \"SafeMath: multiplication overflow\");\n\n    return c;\n  }\n\n  /**\n   * @dev Returns the integer division of two unsigned integers. Reverts on\n   * division by zero. The result is rounded towards zero.\n   *\n   * Counterpart to Solidity's `/` operator. Note: this function uses a\n   * `revert` opcode (which leaves remaining gas untouched) while Solidity\n   * uses an invalid opcode to revert (consuming all remaining gas).\n   *\n   * Requirements:\n   * - The divisor cannot be zero.\n   */\n  function div(uint256 a, uint256 b) internal pure returns (uint256) {\n    return div(a, b, \"SafeMath: division by zero\");\n  }\n\n  /**\n   * @dev Returns the integer division of two unsigned integers. Reverts with custom message on\n   * division by zero. The result is rounded towards zero.\n   *\n   * Counterpart to Solidity's `/` operator. Note: this function uses a\n   * `revert` opcode (which leaves remaining gas untouched) while Solidity\n   * uses an invalid opcode to revert (consuming all remaining gas).\n   *\n   * Requirements:\n   * - The divisor cannot be zero.\n   */\n  function div(uint256 a, uint256 b, string memory errorMessage) internal pure returns (uint256) {\n    // Solidity only automatically asserts when dividing by 0\n    require(b > 0, errorMessage);\n    uint256 c = a / b;\n    // assert(a == b * c + a % b); // There is no case in which this doesn't hold\n\n    return c;\n  }\n\n  /**\n   * @dev Returns the remainder of dividing two unsigned integers. (unsigned integer modulo),\n   * Reverts when dividing by zero.\n   *\n   * Counterpart to Solidity's `%` operator. This function uses a `revert`\n   * opcode (which leaves remaining gas untouched) while Solidity uses an\n   * invalid opcode to revert (consuming all remaining gas).\n   *\n   * Requirements:\n   * - The divisor cannot be zero.\n   */\n  function mod(uint256 a, uint256 b) internal pure returns (uint256) {\n    return mod(a, b, \"SafeMath: modulo by zero\");\n  }\n\n  /**\n   * @dev Returns the remainder of dividing two unsigned integers. (unsigned integer modulo),\n   * Reverts with custom message when dividing by zero.\n   *\n   * Counterpart to Solidity's `%` operator. This function uses a `revert`\n   * opcode (which leaves remaining gas untouched) while Solidity uses an\n   * invalid opcode to revert (consuming all remaining gas).\n   *\n   * Requirements:\n   * - The divisor cannot be zero.\n   */\n  function mod(uint256 a, uint256 b, string memory errorMessage) internal pure returns (uint256) {\n    require(b != 0, errorMessage);\n    return a % b;\n  }\n}\ncontract DevToken is Ownable,Stakeable{\n  using SafeMath for uint256;\n  //\n  uint private _totalSupply; //Tokens \n  uint8 private _decimals; //Token  18\n  string private _symbol;\n  string private _name;\n\n  //  _allowances  1  2  X \n  mapping(address => mapping(address=>uint256)) private _allowances;\n\n  //  Owners  X \n  event Approval(address indexed owner, address indexed spender, uint256 value);\n  //getOwner owner\n  function getOwner() external view returns(address) {\n    return owner();\n  }\n\n  //allowance |ownerallowance\n  function allowance(address owner, address spender) external view returns(uint256) {\n    return _allowances[owner][spender];\n  }\n\n  //_approve  Spender  Owners ,amount\n  function _approve(address owner, address spender, uint256 amount) internal  {\n    require(owner != address(0), \"DevToken: approve cannot be done from zero address\");\n      require(spender != address(0), \"DevToken: approve cannot be to zero address\");\n      //ownerspender\n      _allowances[owner][spender] = amount;\n      emit Approval(owner,spender,amount);\n  }\n\n  //msg.sender  spender  X \n  function approve(address spender, uint256 amount) external returns(bool) {\n    _approve(msg.sender, spender, amount);\n    return true;\n  }\n\n  /*transferFrom \n     * Spender */\n  function transferFrom(address spender, address recipient, uint256 amount) external returns(bool) {\n    //spenderamount>=amount\n    require(_allowances[spender][msg.sender] >= amount,\"DevToken: You cannot spend that much on this account\");\n    // Transfer first\n    _transfer(spender, recipient, amount);\n    // Reduce current allowance so a user cannot respend\n    _approve(spender,msg.sender,_allowances[spender][msg.sender] - amount);\n    return true;\n  }\n\n  /**\n  @notice increaseAllowance\n  \n  */\n  function increaseAllowance(address spender,uint256 amount) public returns(bool) {\n    _approve(msg.sender, spender, _allowances[msg.sender][spender] + amount);\n    return true;\n  } \n  /**\n  * @notice decreaseAllowance\n  * Decrease \n   */\n    function decreaseAllowance(address spender, uint256 amount) public returns (bool) {\n      _approve(msg.sender, spender, _allowances[msg.sender][spender]-amount);\n      return true;\n    }\n\n\n\n  //mapping \n  mapping(address => uint256) private _balances;\n  //\n  event Transfer(address indexed from, address indexed to, uint256 value);\n  \n\n  // Constructor is a function that will run when the Token is created.\n  constructor( string memory token_name, string memory short_symbol, uint8 token_decimals, uint256 token_totalSupply ) {\n    _name = token_name;\n    _symbol = short_symbol;\n    _decimals = token_decimals;\n    _totalSupply = token_totalSupply;\n    //token\n    _balances[msg.sender] = _totalSupply;\n    // Transfer \n    //address(0) 0x000000000000000\n    emit Transfer(address(0),msg.sender,_totalSupply);\n  }\n  // \n  function decimals() external view returns (uint8) {\n    return _decimals;\n  }\n  function symbol() external view returns (string memory){\n    return _symbol;\n  }\n  function name() external view returns (string memory){\n    return _name;\n  }\n  function totalSupply() external view returns (uint256){\n    return _totalSupply;\n  }\n  //\n  function balanceOf(address account) external view returns (uint256){\n    return _balances[account];\n  }\n  /*mint \n   *\n   *  Transfer  (adress(0))\n   *\n   * \n   */\n   function _mint(address account, uint256 amount) internal {\n     require(account != address(0),\"DevToken: cannot mint to zero address\");\n     //token\n     _totalSupply = _totalSupply + (amount);\n     //\n     _balances[account] = _balances[account] + amount;\n     //\n     emit Transfer(address(0), account, amount);\n   }\n   /**\n   burn \n   * \n   *\n   * \n   * - \n   * - \n    */\n    function _burn(address account, uint256 amount) internal {\n      require(account != address(0), \"DevToken: cannot burn from zero address\");\n      require(_balances[account] >= amount,\"DevToken: Cannot burn more than the account owns\");\n      //\n      _balances[account] = _balances[account] - amount;\n      //\n      _totalSupply = _totalSupply - amount;\n      //\n      emit Transfer(account, address(0), amount);\n\n    }\n    \n    /**\n    _transfer\n    *\n    ** Events\n    * - Transfer\n    * \n    * Requires\n    *  - Sender cannot be zero\n    *  - recipient cannot be zero \n    *  - sender balance most be = or bigger than amount\n     */\n    function _transfer(address sender, address recipient, uint256 amount) internal {\n      require(sender != address(0),'DevToken: transfer from zero address');\n      require(recipient != address(0), 'DevToken: transfer to zero address');\n      require(_balances[sender] >= amount,'DevToken: cant transfer more than your account holds');\n      _balances[sender] = _balances[sender] - amount;\n      _balances[recipient] = _balances[recipient] + amount;\n      emit Transfer(sender, recipient, amount);\n    }\n    /*\n    gas transfer_transfer\n     transfer\n     Requires\n    * - Caller cannot be zero\n    * - Caller must have a balance = or bigger than amount\n    */\n    function transfer(address recipient, uint256 amount) external returns(bool) {\n      _transfer(msg.sender, recipient, amount);\n      return true;\n    }\n    //burn\n    function burn(address account, uint256 amount) public onlyOwner returns(bool) {\n      _burn(account, amount);\n      return true;\n    }\n    //mint\n    function mint(address account, uint256 amount) public onlyOwner returns(bool) {\n      _mint(account, amount);\n      return true;\n    }\n    //\n    function stake(uint256 _amount) public {\n      //\n      require(_amount < _balances[msg.sender],'DevToken: Cannot stake more than you own');\n\n      _stake(_amount);\n      // Burn the amount of tokens on the sender\n      _burn(msg.sender, _amount);\n    }\n    //withdrawStake\n    //  withdrawStake is used to withdraw stakes from the account holder\n    function withdrawStake(uint256 amount, uint256 stake_index) public {\n      uint256 amount_to_mint = _withdrawStake(amount, stake_index);\n      // Return staked tokens to user\n      _mint(msg.sender, amount_to_mint);\n\n    }\n    //\n    function hasStake(address _staker) public view returns(StakingSummary memory){\n      uint256 totalStakeAmount; \n      //summary\n      StakingSummary memory summary = StakingSummary(0,stakeholders[stakes[_staker]].address_stakes);\n      //\n      for(uint256 i=0; i<summary.stakes.length;i++){\n        uint256 availableReward = calculateStakeReward(summary.stakes[i]);\n        summary.stakes[i].claimable = availableReward;\n        totalStakeAmount = totalStakeAmount + summary.stakes[i].amount;\n      }\n      //summary\n      summary.total_amount = totalStakeAmount;\n      return summary;\n    }\n    \n}",
  "sourcePath": "C:\\Users\\Administrator\\dev-token\\contracts\\DevToken.sol",
  "compiler": {
    "name": "solc",
    "version": "0.8.13+commit.abaa5c0e.Emscripten.clang"
  },
  "schemaVersion": "3.4.7",
  "updatedAt": "2022-04-29T07:26:43.188Z",
  "networkType": "ethereum",
  "devdoc": {
    "kind": "dev",
    "methods": {},
    "version": 1
  },
  "userdoc": {
    "kind": "user",
    "methods": {
      "decreaseAllowance(address,uint256)": {
        "notice": "decreaseAllowance Decrease "
      },
      "increaseAllowance(address,uint256)": {
        "notice": "increaseAllowance "
      }
    },
    "version": 1
  }
}